:020000020000FC
:020000009DC79A
:10000E0028C9DFD1D0D1A0926901E8E5F1E004E082
:10001E001191113019F4B092690102C00A95C1F71D
:10002E0000912C01043088F000912D01043068F00D
:10003E0000912E01043048F000912F01043028F079
:10004E00A0925C01B09269010895ECD5B0925C016A
:10005E00089517D30895043009F400E000931C01AD
:10006E0000911C01043008F004505BD1009127016F
:10007E00003031F0043018F0045000931C01089544
:10008E0000911C01039500931C01083009F0E8CF84
:10009E00089500915C01003009F408950091680103
:1000AE00003009F4089500915D013BD1C6D1DBD13A
:1000BE00209161011091620100916301ACD1ECE0DD
:1000CE00F1E0709128017A9501918BD17A95E1F743
:1000DE0000810E7F109167011170012B82D1CCD15E
:1000EE00309067013B0C3092670100915D0119D190
:1000FE003090610140906201509063016090280140
:10010E00560C4A1C3A1C3092610140926201509288
:10011E0063015090640140906501309066013B0C84
:10012E004A1C5A1C5092640140926501309266013D
:10013E00309060013B0C30926001609066015090EF
:10014E002B01561409F02CC06090650150902A01C5
:10015E00561409F025C06090640150902901561480
:10016E0009F01EC000C0A0926401A0926501A09289
:10017E006601A0926101A0926201A0926301A09219
:10018E005E01A0925F01A092600130905D013B0C78
:10019E0030925D0100915D015EDF00935D01089577
:1001AE006090600150902701561409F035C000C0D0
:1001BE00A09200013090000140901E01340C30924C
:1001CE000001309000013B0C30920001109128018B
:1001DE0030900001311A3092000100910001011798
:1001EE00B8F7509061014090620130906301300E7B
:1001FE004A1C5A1C50926101409262013092630176
:10020E0040905E0130905F013B0C4A1C40925E01B3
:10021E0030925F01A092600160905F0150902601C4
:10022E00561409F02BC060905E01509025015614B3
:10023E0009F024C000C0A0926001A0926101A092BA
:10024E006201A0926301A0925E01A0925F01709183
:10025E005D0130905D013B0C30925D0100915D01BE
:10026E00FADE00935D01701719F0701708F006C0E2
:10027E00A0926401A0926501A0926601089501D03A
:10028E00089500915C01003009F40895F8940F93DD
:10029E001F932F933F934F938F935F93009128015A
:1002AE008BD80091290188D800912A0185D8009118
:1002BE002B0182D880E0082F34D000912701003026
:1002CE0021F120E010E000E0B8D0DAD0A4D02091E7
:1002DE0025011091260150911E0153953091270151
:1002EE004091280184D068D85A954A95D9F73A9505
:1002FE00B9F7503019F07BD05A95E9F71B192A0936
:10030E00103049F7203039F7A9D08395843099F60B
:10031E005F918F914F913F912F911F910F917894F3
:10032E00089500931C01ECE2F1E0E00FFA1D10813C
:10033E0010931D01E0E3F1E0E00FFA1D1081109320
:10034E001E01E4E3F1E013E0019FE00DFA1D1191AF
:10035E0010931F01119110932001119110932101FF
:10036E00E0E4F1E013E0019FE00DFA1D119110930E
:10037E002201119110932301119110932401ECE4A9
:10038E00F1E012E0019FE00DFA1D1191109325018D
:10039E00119110932601E4E5F1E0E00FFA1D1081B2
:1003AE001093270108951F93E0E0F0E0A8E2B1E07A
:1003BE0014E37CD00D93EB0DFA1D1A95D1F71F9116
:1003CE000895239A259A24982D982B98229A219A4B
:1003DE003D9A3C9A2A9A299A459A449A00E50CBD70
:1003EE0008950EBD2DB427FC01C0FCCF089500E08A
:1003FE00F8DF0EB50895F5DF08950F93012FF1DFA5
:10040E000F91EFDF08950F93022FEBDF012FE9DF3E
:10041E000F91E7DF08953F930F9330911D01333015
:10042E0021F4022FDEDF012FDCDF323011F4012F39
:10043E00D8DF0F91D6DF3F9108950F9300911C01E5
:10044E00003009F42A98013009F42998023009F491
:10045E004598033009F444980F9108952A9A299AE1
:10046E00459A449A08950F9306E0BBDFF7DFE5DF68
:10047E0002E0B7DF0F910895F1DFEED4EDD40895C9
:10048E000F9303E0AEDF0F9108951F93F999FDCFFF
:10049E00F2BDE1BD00BD1FB7F894FA9AF99A1FBFDD
:1004AE00DBD4DAD4EB0DFA1D1F910895F999FECF26
:1004BE00F2BDE1BDF89A00B50895BFDFD4DF01E0CB
:1004CE0090DF000F8EDF000F8CDF000F8ADFD4DF8E
:1004DE00B4DFD6DF01E08FDF8ADFC0DF023011F438
:1004EE0001E018C0AADFCCDF02E011E086DF7FDF7B
:1004FE00B5DF043011F402E00DC09FDFC1DF04E070
:10050E0012E021E080DF73DFA9DF083011F403E091
:10051E0001C000E0089501E000930101A0920B01DB
:10052E00A0920C01A0920D01E4E4FEE086DF9BDFB9
:10053E0000E010E020E06FDF0091010152DF9CDF50
:10054E0009E00093020125911591059176DF98DF60
:10055E002093040110930501009306015CDF47DF31
:10056E0046DF009303017ADF009103011091010130
:10057E00011709F030C061DF76DF009101010395AC
:10058E000093010100E010E020E045DF0091010141
:10059E0028DF72DF52DF74DF209104011091050114
:1005AE000091060138DF23DF22DF0093030156DFBF
:1005BE000091030110910101011769F400910401EA
:1005CE00009309010091050100930A0100910601B3
:1005DE0000930B0108C0009102010A9500930201DD
:1005EE00003009F0B0CF08951F932F9300E00093D1
:1005FE00090100930A0100930B01E0E6FEE01DDF06
:10060E0032DF00E010E020E006DF00E0EADE34DF5B
:10061E0011E01093010105E0009302010EDF23DFCC
:10062E000091010110E020E0F6DE0FEF2491D9DEFB
:10063E002A95E9F721DF01DF23DF20E010E000E05B
:10064E00EADED5DE0093030109DF10910101259149
:10065E00120F10930101009103010F3F39F4109115
:10066E0001011A951A9510930B0108C00091020111
:10067E000A9500930201003009F0D0CF2F911F91FF
:10068E000895003009F40895F8941F932F933F9323
:10069E004F935F936F937F938F938ED6A092580153
:1006AE00A0925901A0925A01A0925B010093000101
:1006BE00A092010100932801E0E0F0E000912801F2
:1006CE00E4DE00E000931C01A0921D01A0921F0128
:1006DE00A0922001A0922101A0921E01A0922501BC
:1006EE00A0922601A0922201A0922301A0922401A1
:1006FE00A0922701E2DE003009F4D5C000931D015F
:10070E000ADFA0921F01A0922001A0922101309039
:10071E001F01409020015090210160900B017090BC
:10072E000A0180900901560C471C381C30921F019B
:10073E00409220015092210157DF00910B0100934E
:10074E001E0100911E01A0922501A0922601A092E9
:10075E000201A0920301A092040130900201409088
:10076E00030150900401609021017090200180904F
:10077E001F01560C471C381C309202014092030197
:10078E0050920401509002014090030130900401F8
:10079E003B0C4A1C5A1C50920201409203013092AB
:1007AE00040140902501309026013B0C4A1C4092DA
:1007BE0025013092260150900201409003013090A5
:1007CE0004013B184A085A08509202014092030154
:1007DE0030920401509002014090030130900401C8
:1007EE00301A4A085A085092020140920301309280
:1007FE000401309002013A1409F0D3CF3090030176
:10080E003A1409F0CECF309004013A1409F0C9CF52
:10081E0000C00091000110911E0120E01B0D2B0D58
:10082E00101B1017E0F720932701A0920201A0924F
:10083E000301309002014090030150902601609018
:10084E002501450C361C3092020140920301A09204
:10085E002201A0922301A0922401309127015090F1
:10086E0022014090230130902401330E4A1C5A1C61
:10087E0050922201409223013092240140900201B5
:10088E00309003013B184A08409202013092030156
:10089E00309002013A1409F0E2CF309003013A147D
:1008AE0009F0DDCF00C0E4E0F0E000911C01E00FA4
:1008BE00FA1D00911D01E9DDE8E0F0E000911C0158
:1008CE00E00FFA1D00911E01E0DDECE0F0E013E018
:1008DE0000911C01019FE00DFA1D00911F01D5DD55
:1008EE0000912001D2DD00912101CFDDE8E1F0E0A1
:1008FE0013E000911C01019FE00DFA1D00912201F1
:10090E00C4DD00912301C1DD00912401BEDDE4E2CE
:10091E00F0E012E000911C01019FE00DFA1D009124
:10092E002501B3DD00912601B0DDECE2F0E000918F
:10093E001C01E00FFA1D00912701A7DDECE2F1E0AA
:10094E0000911C01E00FFA1D00911D010083E0E3F0
:10095E00F1E000911C01E00FFA1D00911E010083D1
:10096E00E4E3F1E013E000911C01019FE00DFA1D9C
:10097E0000911F010193009120010193009121012B
:10098E000083E0E4F1E013E000911C01019FE00D13
:10099E00FA1D009122010193009123010193009110
:1009AE0024010083ECE4F1E012E000911C01019FB0
:1009BE00E00DFA1D0091250101930091260100839F
:1009CE00E4E5F1E000911C01E00FFA1D0091270112
:1009DE00008300E5F1D400911C01A3DCA092050177
:1009EE00A09206013090050140900601509026011C
:1009FE0060902501450C361C30920501409206018F
:100A0E007091010150912701603009F45AC05030A5
:100A1E0009F457C0A0920201A0920301A092040112
:100A2E000CDD21DD209102011091030100910401E2
:100A3E00F2DC50912701809128018A950A2DD1DC94
:100A4E008A95E1F70A2D70FD0B2DCBDC73955A9527
:100A5E0091F712DD30900201409003015090040195
:100A6E0060901E01560C4A1C3A1C309202014092B4
:100A7E000301509204015090020140900301309006
:100A8E0004013B0C4A1C5A1C509202014092030175
:100A9E003092040140900501309006013B184A083F
:100AAE004092050130920601309005013A1409F08A
:100ABE00B7CF309006013A1409F0B2CF00C0709350
:100ACE00010130901C013B0C30921C0100911C0165
:100ADE00043009F0F9CDA0925801A0925901A092CC
:100AEE005A01A0925B01E0E3F0E00A2DCEDCCDDCF2
:100AFE00CCDCCBDCA0922901A0922A01A0922B0182
:100B0E003090290140902A0150902B0160904201B3
:100B1E007090410180904001560C471C381C309259
:100B2E00290140922A0150922B01309029014090C8
:100B3E002A0150902B0160904501709044018090E5
:100B4E004301560C471C381C3092290140922A0151
:100B5E0050922B013090290140902A0150902B0188
:100B6E00609048017090470180904601560C471CDA
:100B7E00381C3092290140922A0150922B0130905C
:100B8E00290140902A0150902B0160904B017090EA
:100B9E004A0180904901560C471C381C309229019D
:100BAE0040922A0150922B0100912B0100FD0FC0A3
:100BBE005090290140902A0130902B013B184A0891
:100BCE005A085092290140922A0130922B01E1E0FD
:100BDE00F0E00091290159DC00912A0156DC0091C8
:100BEE002B0153DCA0925D01A0925E01A0925F01E9
:100BFE00A0926001A0926101A0926201A092630195
:100C0E00A0926401A0926501A09266010AE5D4D378
:100C1E008F917F916F915F914F913F912F911F9186
:100C2E0078940895F8940F931F932F933F934F93B7
:100C3E008F935F937F936F93A0925D01A0925E015D
:100C4E00A0925F01A0926401A0926501A09266013C
:100C5E00A0926801A0920301A0920001A0925D01F2
:100C6E00A092670100915D01043068F004500030DD
:100C7E0051F4A0925E01A0925F01A0926401A09235
:100C8E006501A09266014DDBA0926101A092620106
:100C9E00A092630100912701003009F4B7C020E053
:100CAE0010E000E0CADBECDBB6DB209125011091F1
:100CBE002601209301011093020103E57DD3A0923A
:100CCE00600150911E01539530912701309304011C
:100CDE00409128014A955A958ADB5A954A95E1F733
:100CEE0086DB70910301703019F4B092030119C0C4
:100CFE007091000171700170700F70FD12C00F9332
:100D0E0006E45AD30F910395017000936701809109
:100D1E005D01843008F0845080935D01B0926801CB
:100D2E007EC0702F70930001409128015090610198
:100D3E004090620130906301340E4A1C5A1C50924E
:100D4E0061014092620130926301509064014090C3
:100D5E006501309066013B0C4A1C5A1C509264018E
:100D6E0040926501309266016090660150902B01B1
:100D7E00561409F012C06090650150902A01561465
:100D8E0009F00BC06090640150902901561409F0CF
:100D9E0004C000C00FE310D339C0309060013B0C8B
:100DAE0030926001309004013B1830920401309073
:100DBE0004013A1409F08CCF00C0503091F05090DD
:100DCE0061014090620130906301350E4A1C5A1C3D
:100DDE0050926101409262013092630108DB5A9594
:100DEE00E9F740900101309002013B184A08409209
:100DFE00010130920201309001013A1409F05DCFE9
:100E0E00309002013A1409F058CF00C027DB8091D0
:100E1E005D01839580935D01883009F023CF1EDB41
:100E2E006F917F915F918F914F913F912F911F9174
:100E3E000F917894089500007F0000FF0001FF00DD
:100E4E000FFF001FFF003FFF007FFF00FFFF01FFAE
:100E5E00FF001010204080001F932F9325E018EC08
:100E6E0000001A95E9F72A95D1F72F911F91089551
:100E7E001F932F9325E018EC00001A95E9F72A9599
:100E8E00D1F72F911F9108951F9314E6F1DF1A9554
:100E9E00E9F71F9108950F93232F032F07D0302FBB
:100EAE00022F029503D0202F0F9108950F7000305E
:100EBE00F1F00130F1F00230F1F00330F1F00430D6
:100ECE00F1F00530F1F00630F1F00730F1F00830B6
:100EDE00F1F00930F1F00A30F1F00B30F1F00C3096
:100EEE00F1F00D30F1F00E30F1F00F30F1F000E3D3
:100EFE00089501E3089502E3089503E3089504E3DA
:100F0E00089505E3089506E3089507E3089508E3B9
:100F1E00089509E3089501E4089502E4089503E4B1
:100F2E00089504E4089505E4089506E40895F894F8
:100F3E0000E2F02EAA2401E0B02E0FEFC02EE0E763
:100F4E00F1E0A192A192A192A192A192EBE6F1E021
:100F5E00A192A192A192A192A19200E00093C4004D
:100F6E0000E00093C50006E00093C2000091C100AE
:100F7E0008610093C10004E00EBF0FEF0DBF06E045
:100F8E0004B900E005B903E307B90CE008B900E0C5
:100F9E000AB900E00BB94198409833D8A0928B0162
:100FAE00A0928C01A0928C010FE04A99077000006C
:100FBE0018990B70000033990D70000032990E7065
:100FCE00000000938C0100E008B9A0927A00109105
:100FDE008C01E2E7F6E1E10FFA1DC8950092B3002D
:100FEE00E2E6F6E1E10FFA1DC8950092B100E2E8E3
:100FFE00F6E1E10FFA1DC89500928901E2E9F6E1EA
:10100E00E10FFA1DC89500928A0100E20093B60026
:10101E0002E00093700001E003BF02E00093B00015
:10102E0000E20093B60002E00093700009EA00931C
:10103E006400409A409828DF27DF409A25DF24DF9E
:10104E00409822DF21DF409A1FDF1EDF0CE3009362
:10105E008D0100918D010837B1F4409815DF409A4B
:10106E0013DF409811DF409A0FDF40980DDF409A52
:10107E000BDF409809DF409A07DF409805DF409A62
:10108E0003DFE2C003C0039500938D012090C000E2
:10109E0027FC01C0D7C00091C600F894A0928D0124
:1010AE00053409F033C00CE008B90FE04A99077017
:1010BE00000018990B70000033990D7000003299E2
:1010CE000E70000000938C0177D100E008B91091EA
:1010DE008C01E2E7F6E1E10FFA1DC895002D6CD107
:1010EE00E2E6F6E1E10FFA1DC895002D65D1E2E8C2
:1010FE00F6E1E10FFA1DC895002D5ED1E2E9F6E1A9
:10110E00E10FFA1DC895002D57D19CC0043409F08B
:10111E0006C000E000931C01D0D94ED193C00B3411
:10112E0009F026C07FDD00915D0146D100915E0180
:10113E0043D100915F0140D1009160013DD10091FA
:10114E0061013AD10091620137D10091630134D12E
:10115E000091640131D1009165012ED1009166019B
:10116E002BD10091670128D10091680125D16AC069
:10117E00013481F4419A28D14198309170018BDE6F
:10118E00032F1AD130916B0186DE022F15D1032F5A
:10119E0013D158C00334B1F410E03FE826E92F9381
:1011AE003F9310936B011395A09270011F93C5D0BE
:1011BE001F913F912F9106E4FFD02A9581F73A9522
:1011CE0069F740C0013209F006C002E042D72ADDBD
:1011DE00B0925C0137C0023209F006C003E039D785
:1011EE0021DDB0925C012EC0033209F006C005E08D
:1011FE0030D718DDB0925C0125C0043209F006C06C
:10120E0006E027D70FDDB0925C011CC0053209F055
:10121E0006C007E01ED706DDB0925C0113C0063291
:10122E0009F005C000918C01C7D029D80BC0073238
:10123E0009F008C0E8E2F1E074E30191BDD07A95BF
:10124E00E1F700C021DE05CF789407E003BF889553
:10125E00FECF0EDE0DDE0CDE0BDE0ADE09DE08DE54
:10126E0007DE06DE05DE04DE03DE02DE00915C0133
:10127E000030B1F000918B01003091F470E060917C
:10128E00280158E0659F5BE07395051A0616E0F796
:10129E0070938B01703019F4B092690101C04DD07A
:1012AE0070918B01703009F432C0309089013A147C
:1012BE0009F006C030908A013A1409F001C00BC043
:1012CE004090890130908A013B184A08409289016A
:1012DE0030928A0130C0F8940DE46ED0419A70912C
:1012EE008B01C6DD2AD04198409A10918C01E2E81C
:1012FE00F6E1E10FFA1DC89500928901E2E9F6E1E7
:10130E00E10FFA1DC89500928A01789414C0A0923C
:10131E006B01A0926C01A0926D01A0926E01A09241
:10132E006F01A0927001A0927101A0927201A09221
:10133E007301A092740178941895ECE0F1E070912D
:10134E002801A1927A95E9F7EBE6F1E0A0E7B1E08A
:10135E0080918B010D910093000101910093010189
:10136E00EF93FF93AF93BF930091280112E07BE0C0
:10137E00672EACE0B1E0E0E0F1E0312E55247724A9
:10138E004080469477944528572C41923A94B9F769
:10139E00302E77244C90469477944528572C4D92B6
:1013AE003A94B9F76A9429F7BF91AF91FF91EF91F3
:1013BE008A9581F66ED608952090C00025FC01C056
:1013CE00FBCF0093C6000895A0926B01A09270010E
:1013DE0000E10093870100E00093880145D010934F
:1013EE006B01209370010895A0926C01A09271017F
:1013FE0000E20093870101E00093880135D010933D
:10140E006C01209371010895A0926D01A09272015A
:10141E0000E40093870102E00093880125D0109329
:10142E006D01209372010895A0926E01A092730136
:10143E0000E80093870103E00093880115D0109314
:10144E006E01209373010895A0926F01A092740112
:10145E0008E00093870104E00093880105D0109303
:10146E006F0120937401089511272227A0926A011B
:10147E0066278FE09927F0DC6DD0002309F40895DC
:10148E0087D093D090936A01892F8FD000937501E6
:10149E00000F221F8AD000937601000F221F85D0E5
:1014AE0000937701000F221F80D000937801000F68
:1014BE00221F022F087F002301F077D000937901BD
:1014CE00000F221F72D000937A01000F221F6DD0E1
:1014DE0000937B01000F221F68D000937C01000F48
:1014EE00221F63D000937D01622F95D0601701F00B
:1014FE005CD05BD000937E01000F111F56D000937D
:10150E007F01000F111F51D000938001000F111F9A
:10151E004CD000938101000F111F47D00093820120
:10152E00000F111F42D000938301000F111F3DD0F9
:10153E0000938401000F111F38D000938501000F16
:10154E00111F33D000938601612F65D0601701F013
:10155E0083DC089540908701EFEFFFEF3197EE2384
:10156E0021F4FF2311F40027089539B034203A14E2
:10157E00A9F7EFEFFFEF3197EE2321F4FF2311F4DC
:10158E000027089539B034203A14A9F301E00895E4
:10159E00E0E0F8E24090870139B034203A14C1F30C
:1015AE00EA95D1F7FA95C1F70895992740908701EA
:1015BE0039B034203A14E1F7939539B034203A1407
:1015CE00D9F3981710F0002708950FEF08953327D9
:1015DE00412F522F6627ECE7F0E0140F251F361F20
:1015EE003197EE23D1F7FF23C1F7412F522F632FEF
:1015FE00110F220F330F47FD2B0D57FD3B0D122FF1
:10160E00232F3CE04EEF130F241F089530E040E0EF
:10161E00130F241F08950F930027669517D0669514
:10162E0015D0669513D0669511D066950FD0669538
:10163E000DD066950BD0669509D00170002319F474
:10164E0060E00F9108956FEF0F91089508F00895DF
:10165E0003950895070707070707070707070707F3
:10166E00070707071F9F9FEFEFEFEFEFEFEFEFEF8C
:10167E00EFEFEFEF0000000000000000000001029D
:10168E00030B162C000001030713274F77EFDFCF54
:04169E00BF3F7FFFCC
:00000001FF
